{
  "_format": "hh-sol-artifact-1",
  "contractName": "Token",
  "sourceName": "contracts/Token.sol",
  "abi": [
    {
      "inputs": [],
      "stateMutability": "nonpayable",
      "type": "constructor"
    },
    {
      "anonymous": false,
      "inputs": [
        {
          "indexed": true,
          "internalType": "address",
          "name": "owner",
          "type": "address"
        },
        {
          "indexed": true,
          "internalType": "address",
          "name": "spender",
          "type": "address"
        },
        {
          "indexed": false,
          "internalType": "uint256",
          "name": "value",
          "type": "uint256"
        }
      ],
      "name": "Approval",
      "type": "event"
    },
    {
      "anonymous": false,
      "inputs": [
        {
          "indexed": true,
          "internalType": "address",
          "name": "from",
          "type": "address"
        },
        {
          "indexed": true,
          "internalType": "address",
          "name": "to",
          "type": "address"
        },
        {
          "indexed": false,
          "internalType": "uint256",
          "name": "value",
          "type": "uint256"
        }
      ],
      "name": "Transfer",
      "type": "event"
    },
    {
      "inputs": [
        {
          "internalType": "address",
          "name": "owner",
          "type": "address"
        },
        {
          "internalType": "address",
          "name": "spender",
          "type": "address"
        }
      ],
      "name": "allowance",
      "outputs": [
        {
          "internalType": "uint256",
          "name": "",
          "type": "uint256"
        }
      ],
      "stateMutability": "view",
      "type": "function"
    },
    {
      "inputs": [
        {
          "internalType": "address",
          "name": "spender",
          "type": "address"
        },
        {
          "internalType": "uint256",
          "name": "amount",
          "type": "uint256"
        }
      ],
      "name": "approve",
      "outputs": [
        {
          "internalType": "bool",
          "name": "",
          "type": "bool"
        }
      ],
      "stateMutability": "nonpayable",
      "type": "function"
    },
    {
      "inputs": [
        {
          "internalType": "address",
          "name": "account",
          "type": "address"
        }
      ],
      "name": "balanceOf",
      "outputs": [
        {
          "internalType": "uint256",
          "name": "",
          "type": "uint256"
        }
      ],
      "stateMutability": "view",
      "type": "function"
    },
    {
      "inputs": [
        {
          "internalType": "uint256",
          "name": "amount",
          "type": "uint256"
        }
      ],
      "name": "burn",
      "outputs": [],
      "stateMutability": "nonpayable",
      "type": "function"
    },
    {
      "inputs": [],
      "name": "decimals",
      "outputs": [
        {
          "internalType": "uint8",
          "name": "",
          "type": "uint8"
        }
      ],
      "stateMutability": "view",
      "type": "function"
    },
    {
      "inputs": [
        {
          "internalType": "address",
          "name": "spender",
          "type": "address"
        },
        {
          "internalType": "uint256",
          "name": "subtractedValue",
          "type": "uint256"
        }
      ],
      "name": "decreaseAllowance",
      "outputs": [
        {
          "internalType": "bool",
          "name": "",
          "type": "bool"
        }
      ],
      "stateMutability": "nonpayable",
      "type": "function"
    },
    {
      "inputs": [
        {
          "internalType": "address",
          "name": "spender",
          "type": "address"
        },
        {
          "internalType": "uint256",
          "name": "addedValue",
          "type": "uint256"
        }
      ],
      "name": "increaseAllowance",
      "outputs": [
        {
          "internalType": "bool",
          "name": "",
          "type": "bool"
        }
      ],
      "stateMutability": "nonpayable",
      "type": "function"
    },
    {
      "inputs": [
        {
          "internalType": "address",
          "name": "to",
          "type": "address"
        },
        {
          "internalType": "uint256",
          "name": "amount",
          "type": "uint256"
        }
      ],
      "name": "mint",
      "outputs": [],
      "stateMutability": "nonpayable",
      "type": "function"
    },
    {
      "inputs": [],
      "name": "name",
      "outputs": [
        {
          "internalType": "string",
          "name": "",
          "type": "string"
        }
      ],
      "stateMutability": "view",
      "type": "function"
    },
    {
      "inputs": [],
      "name": "owner",
      "outputs": [
        {
          "internalType": "address",
          "name": "",
          "type": "address"
        }
      ],
      "stateMutability": "view",
      "type": "function"
    },
    {
      "inputs": [],
      "name": "symbol",
      "outputs": [
        {
          "internalType": "string",
          "name": "",
          "type": "string"
        }
      ],
      "stateMutability": "view",
      "type": "function"
    },
    {
      "inputs": [],
      "name": "totalSupply",
      "outputs": [
        {
          "internalType": "uint256",
          "name": "",
          "type": "uint256"
        }
      ],
      "stateMutability": "view",
      "type": "function"
    },
    {
      "inputs": [
        {
          "internalType": "address",
          "name": "to",
          "type": "address"
        },
        {
          "internalType": "uint256",
          "name": "amount",
          "type": "uint256"
        }
      ],
      "name": "transfer",
      "outputs": [
        {
          "internalType": "bool",
          "name": "",
          "type": "bool"
        }
      ],
      "stateMutability": "nonpayable",
      "type": "function"
    },
    {
      "inputs": [
        {
          "internalType": "address",
          "name": "from",
          "type": "address"
        },
        {
          "internalType": "address",
          "name": "to",
          "type": "address"
        },
        {
          "internalType": "uint256",
          "name": "amount",
          "type": "uint256"
        }
      ],
      "name": "transferFrom",
      "outputs": [
        {
          "internalType": "bool",
          "name": "",
          "type": "bool"
        }
      ],
      "stateMutability": "nonpayable",
      "type": "function"
    }
  ],
  "bytecode": "0x60806040523480156200001157600080fd5b50604080518082018252600a81526925a0a6a0a62a27a5a2a760b11b60208083019182528351808501909452600284526112d560f21b9084015281519192916200005e916003916200018b565b508051620000749060049060208401906200018b565b5050506200008c33620186a0620000a460201b60201c565b600580546001600160a01b03191633179055620002d3565b6001600160a01b038216620000d65760405162461bcd60e51b8152600401620000cd9062000231565b60405180910390fd5b620000e46000838362000186565b8060026000828254620000f8919062000271565b90915550506001600160a01b038216600090815260208190526040812080548392906200012790849062000271565b90915550506040516001600160a01b038316906000907fddf252ad1be2c89b69c2b068fc378daa952ba7f163c4a11628f55a4df523b3ef906200016c90859062000268565b60405180910390a3620001826000838362000186565b5050565b505050565b828054620001999062000296565b90600052602060002090601f016020900481019282620001bd576000855562000208565b82601f10620001d857805160ff191683800117855562000208565b8280016001018555821562000208579182015b8281111562000208578251825591602001919060010190620001eb565b50620002169291506200021a565b5090565b5b808211156200021657600081556001016200021b565b6020808252601f908201527f45524332303a206d696e7420746f20746865207a65726f206164647265737300604082015260600190565b90815260200190565b600082198211156200029157634e487b7160e01b81526011600452602481fd5b500190565b600281046001821680620002ab57607f821691505b60208210811415620002cd57634e487b7160e01b600052602260045260246000fd5b50919050565b610d3280620002e36000396000f3fe608060405234801561001057600080fd5b50600436106100ea5760003560e01c806342966c681161008c57806395d89b411161006657806395d89b41146101cd578063a457c2d7146101d5578063a9059cbb146101e8578063dd62ed3e146101fb576100ea565b806342966c681461019257806370a08231146101a55780638da5cb5b146101b8576100ea565b806323b872dd116100c857806323b872dd14610142578063313ce56714610155578063395093511461016a57806340c10f191461017d576100ea565b806306fdde03146100ef578063095ea7b31461010d57806318160ddd1461012d575b600080fd5b6100f761020e565b604051610104919061095b565b60405180910390f35b61012061011b3660046108fb565b6102a0565b6040516101049190610950565b6101356102c2565b6040516101049190610c65565b6101206101503660046108c0565b6102c8565b61015d6102f6565b6040516101049190610c6e565b6101206101783660046108fb565b6102fb565b61019061018b3660046108fb565b610347565b005b6101906101a0366004610924565b610388565b6101356101b336600461086d565b610395565b6101c06103b4565b604051610104919061093c565b6100f76103c3565b6101206101e33660046108fb565b6103d2565b6101206101f63660046108fb565b610433565b61013561020936600461088e565b61044b565b60606003805461021d90610cab565b80601f016020809104026020016040519081016040528092919081815260200182805461024990610cab565b80156102965780601f1061026b57610100808354040283529160200191610296565b820191906000526020600020905b81548152906001019060200180831161027957829003601f168201915b5050505050905090565b6000806102ab610476565b90506102b881858561047a565b5060019392505050565b60025490565b6000806102d3610476565b90506102e085828561052e565b6102eb858585610578565b506001949350505050565b601290565b600080610306610476565b6001600160a01b038082166000908152600160209081526040808320938916835292905220549091506102b89082908690610342908790610c7c565b61047a565b6005546001600160a01b0316331461037a5760405162461bcd60e51b815260040161037190610af2565b60405180910390fd5b610384828261069c565b5050565b6103923382610764565b50565b6001600160a01b0381166000908152602081905260409020545b919050565b6005546001600160a01b031681565b60606004805461021d90610cab565b6000806103dd610476565b6001600160a01b03808216600090815260016020908152604080832093891683529290522054909150838110156104265760405162461bcd60e51b815260040161037190610be9565b6102eb828686840361047a565b60008061043e610476565b90506102b8818585610578565b6001600160a01b03918216600090815260016020908152604080832093909416825291909152205490565b3390565b6001600160a01b0383166104a05760405162461bcd60e51b815260040161037190610ba5565b6001600160a01b0382166104c65760405162461bcd60e51b815260040161037190610a33565b6001600160a01b0380841660008181526001602090815260408083209487168084529490915290819020849055517f8c5be1e5ebec7d5bd14f71427d1e84f3dd0314c0f7b2291e5b200ac8c7c3b92590610521908590610c65565b60405180910390a3505050565b600061053a848461044b565b9050600019811461057257818110156105655760405162461bcd60e51b815260040161037190610a75565b610572848484840361047a565b50505050565b6001600160a01b03831661059e5760405162461bcd60e51b815260040161037190610b60565b6001600160a01b0382166105c45760405162461bcd60e51b8152600401610371906109ae565b6105cf838383610851565b6001600160a01b038316600090815260208190526040902054818110156106085760405162461bcd60e51b815260040161037190610aac565b6001600160a01b0380851660009081526020819052604080822085850390559185168152908120805484929061063f908490610c7c565b92505081905550826001600160a01b0316846001600160a01b03167fddf252ad1be2c89b69c2b068fc378daa952ba7f163c4a11628f55a4df523b3ef846040516106899190610c65565b60405180910390a3610572848484610851565b6001600160a01b0382166106c25760405162461bcd60e51b815260040161037190610c2e565b6106ce60008383610851565b80600260008282546106e09190610c7c565b90915550506001600160a01b0382166000908152602081905260408120805483929061070d908490610c7c565b90915550506040516001600160a01b038316906000907fddf252ad1be2c89b69c2b068fc378daa952ba7f163c4a11628f55a4df523b3ef90610750908590610c65565b60405180910390a361038460008383610851565b6001600160a01b03821661078a5760405162461bcd60e51b815260040161037190610b1f565b61079682600083610851565b6001600160a01b038216600090815260208190526040902054818110156107cf5760405162461bcd60e51b8152600401610371906109f1565b6001600160a01b03831660009081526020819052604081208383039055600280548492906107fe908490610c94565b90915550506040516000906001600160a01b038516907fddf252ad1be2c89b69c2b068fc378daa952ba7f163c4a11628f55a4df523b3ef90610841908690610c65565b60405180910390a3610851836000845b505050565b80356001600160a01b03811681146103af57600080fd5b60006020828403121561087e578081fd5b61088782610856565b9392505050565b600080604083850312156108a0578081fd5b6108a983610856565b91506108b760208401610856565b90509250929050565b6000806000606084860312156108d4578081fd5b6108dd84610856565b92506108eb60208501610856565b9150604084013590509250925092565b6000806040838503121561090d578182fd5b61091683610856565b946020939093013593505050565b600060208284031215610935578081fd5b5035919050565b6001600160a01b0391909116815260200190565b901515815260200190565b6000602080835283518082850152825b818110156109875785810183015185820160400152820161096b565b818111156109985783604083870101525b50601f01601f1916929092016040019392505050565b60208082526023908201527f45524332303a207472616e7366657220746f20746865207a65726f206164647260408201526265737360e81b606082015260800190565b60208082526022908201527f45524332303a206275726e20616d6f756e7420657863656564732062616c616e604082015261636560f01b606082015260800190565b60208082526022908201527f45524332303a20617070726f766520746f20746865207a65726f206164647265604082015261737360f01b606082015260800190565b6020808252601d908201527f45524332303a20696e73756666696369656e7420616c6c6f77616e6365000000604082015260600190565b60208082526026908201527f45524332303a207472616e7366657220616d6f756e7420657863656564732062604082015265616c616e636560d01b606082015260800190565b60208082526013908201527213db9b1e4818591b5a5b8818d85b881b5a5b9d606a1b604082015260600190565b60208082526021908201527f45524332303a206275726e2066726f6d20746865207a65726f206164647265736040820152607360f81b606082015260800190565b60208082526025908201527f45524332303a207472616e736665722066726f6d20746865207a65726f206164604082015264647265737360d81b606082015260800190565b60208082526024908201527f45524332303a20617070726f76652066726f6d20746865207a65726f206164646040820152637265737360e01b606082015260800190565b60208082526025908201527f45524332303a2064656372656173656420616c6c6f77616e63652062656c6f77604082015264207a65726f60d81b606082015260800190565b6020808252601f908201527f45524332303a206d696e7420746f20746865207a65726f206164647265737300604082015260600190565b90815260200190565b60ff91909116815260200190565b60008219821115610c8f57610c8f610ce6565b500190565b600082821015610ca657610ca6610ce6565b500390565b600281046001821680610cbf57607f821691505b60208210811415610ce057634e487b7160e01b600052602260045260246000fd5b50919050565b634e487b7160e01b600052601160045260246000fdfea26469706673582212202548d7859849a0ee72434a276b722ed39f3de924e93117dc4b6fcfb49358c04064736f6c63430008000033",
  "linkReferences": {},
  "deployedLinkReferences": {}
}