{
  "_format": "hh-sol-artifact-1",
  "contractName": "Token",
  "sourceName": "contracts/Token.sol",
  "abi": [
    {
      "inputs": [],
      "stateMutability": "nonpayable",
      "type": "constructor"
    },
    {
      "anonymous": false,
      "inputs": [
        {
          "indexed": true,
          "internalType": "address",
          "name": "owner",
          "type": "address"
        },
        {
          "indexed": true,
          "internalType": "address",
          "name": "spender",
          "type": "address"
        },
        {
          "indexed": false,
          "internalType": "uint256",
          "name": "value",
          "type": "uint256"
        }
      ],
      "name": "Approval",
      "type": "event"
    },
    {
      "anonymous": false,
      "inputs": [
        {
          "indexed": false,
          "internalType": "address",
          "name": "account",
          "type": "address"
        }
      ],
      "name": "Paused",
      "type": "event"
    },
    {
      "anonymous": false,
      "inputs": [
        {
          "indexed": true,
          "internalType": "bytes32",
          "name": "role",
          "type": "bytes32"
        },
        {
          "indexed": true,
          "internalType": "bytes32",
          "name": "previousAdminRole",
          "type": "bytes32"
        },
        {
          "indexed": true,
          "internalType": "bytes32",
          "name": "newAdminRole",
          "type": "bytes32"
        }
      ],
      "name": "RoleAdminChanged",
      "type": "event"
    },
    {
      "anonymous": false,
      "inputs": [
        {
          "indexed": true,
          "internalType": "bytes32",
          "name": "role",
          "type": "bytes32"
        },
        {
          "indexed": true,
          "internalType": "address",
          "name": "account",
          "type": "address"
        },
        {
          "indexed": true,
          "internalType": "address",
          "name": "sender",
          "type": "address"
        }
      ],
      "name": "RoleGranted",
      "type": "event"
    },
    {
      "anonymous": false,
      "inputs": [
        {
          "indexed": true,
          "internalType": "bytes32",
          "name": "role",
          "type": "bytes32"
        },
        {
          "indexed": true,
          "internalType": "address",
          "name": "account",
          "type": "address"
        },
        {
          "indexed": true,
          "internalType": "address",
          "name": "sender",
          "type": "address"
        }
      ],
      "name": "RoleRevoked",
      "type": "event"
    },
    {
      "anonymous": false,
      "inputs": [
        {
          "indexed": true,
          "internalType": "address",
          "name": "from",
          "type": "address"
        },
        {
          "indexed": true,
          "internalType": "address",
          "name": "to",
          "type": "address"
        },
        {
          "indexed": false,
          "internalType": "uint256",
          "name": "value",
          "type": "uint256"
        }
      ],
      "name": "Transfer",
      "type": "event"
    },
    {
      "anonymous": false,
      "inputs": [
        {
          "indexed": false,
          "internalType": "address",
          "name": "account",
          "type": "address"
        }
      ],
      "name": "Unpaused",
      "type": "event"
    },
    {
      "inputs": [],
      "name": "BURNER_ROLE",
      "outputs": [
        {
          "internalType": "bytes32",
          "name": "",
          "type": "bytes32"
        }
      ],
      "stateMutability": "view",
      "type": "function"
    },
    {
      "inputs": [],
      "name": "DEFAULT_ADMIN_ROLE",
      "outputs": [
        {
          "internalType": "bytes32",
          "name": "",
          "type": "bytes32"
        }
      ],
      "stateMutability": "view",
      "type": "function"
    },
    {
      "inputs": [],
      "name": "MINTER_ROLE",
      "outputs": [
        {
          "internalType": "bytes32",
          "name": "",
          "type": "bytes32"
        }
      ],
      "stateMutability": "view",
      "type": "function"
    },
    {
      "inputs": [],
      "name": "MY_ROLE",
      "outputs": [
        {
          "internalType": "bytes32",
          "name": "",
          "type": "bytes32"
        }
      ],
      "stateMutability": "view",
      "type": "function"
    },
    {
      "inputs": [],
      "name": "PAUSER_ROLE",
      "outputs": [
        {
          "internalType": "bytes32",
          "name": "",
          "type": "bytes32"
        }
      ],
      "stateMutability": "view",
      "type": "function"
    },
    {
      "inputs": [
        {
          "internalType": "address",
          "name": "owner",
          "type": "address"
        },
        {
          "internalType": "address",
          "name": "spender",
          "type": "address"
        }
      ],
      "name": "allowance",
      "outputs": [
        {
          "internalType": "uint256",
          "name": "",
          "type": "uint256"
        }
      ],
      "stateMutability": "view",
      "type": "function"
    },
    {
      "inputs": [
        {
          "internalType": "address",
          "name": "spender",
          "type": "address"
        },
        {
          "internalType": "uint256",
          "name": "amount",
          "type": "uint256"
        }
      ],
      "name": "approve",
      "outputs": [
        {
          "internalType": "bool",
          "name": "",
          "type": "bool"
        }
      ],
      "stateMutability": "nonpayable",
      "type": "function"
    },
    {
      "inputs": [
        {
          "internalType": "address",
          "name": "account",
          "type": "address"
        }
      ],
      "name": "balanceOf",
      "outputs": [
        {
          "internalType": "uint256",
          "name": "",
          "type": "uint256"
        }
      ],
      "stateMutability": "view",
      "type": "function"
    },
    {
      "inputs": [
        {
          "internalType": "uint256",
          "name": "amount",
          "type": "uint256"
        }
      ],
      "name": "burn",
      "outputs": [],
      "stateMutability": "nonpayable",
      "type": "function"
    },
    {
      "inputs": [],
      "name": "decimals",
      "outputs": [
        {
          "internalType": "uint8",
          "name": "",
          "type": "uint8"
        }
      ],
      "stateMutability": "view",
      "type": "function"
    },
    {
      "inputs": [
        {
          "internalType": "address",
          "name": "spender",
          "type": "address"
        },
        {
          "internalType": "uint256",
          "name": "subtractedValue",
          "type": "uint256"
        }
      ],
      "name": "decreaseAllowance",
      "outputs": [
        {
          "internalType": "bool",
          "name": "",
          "type": "bool"
        }
      ],
      "stateMutability": "nonpayable",
      "type": "function"
    },
    {
      "inputs": [
        {
          "internalType": "bytes32",
          "name": "role",
          "type": "bytes32"
        }
      ],
      "name": "getRoleAdmin",
      "outputs": [
        {
          "internalType": "bytes32",
          "name": "",
          "type": "bytes32"
        }
      ],
      "stateMutability": "view",
      "type": "function"
    },
    {
      "inputs": [
        {
          "internalType": "bytes32",
          "name": "role",
          "type": "bytes32"
        },
        {
          "internalType": "address",
          "name": "account",
          "type": "address"
        }
      ],
      "name": "grantRole",
      "outputs": [],
      "stateMutability": "nonpayable",
      "type": "function"
    },
    {
      "inputs": [
        {
          "internalType": "bytes32",
          "name": "role",
          "type": "bytes32"
        },
        {
          "internalType": "address",
          "name": "account",
          "type": "address"
        }
      ],
      "name": "hasRole",
      "outputs": [
        {
          "internalType": "bool",
          "name": "",
          "type": "bool"
        }
      ],
      "stateMutability": "view",
      "type": "function"
    },
    {
      "inputs": [
        {
          "internalType": "address",
          "name": "spender",
          "type": "address"
        },
        {
          "internalType": "uint256",
          "name": "addedValue",
          "type": "uint256"
        }
      ],
      "name": "increaseAllowance",
      "outputs": [
        {
          "internalType": "bool",
          "name": "",
          "type": "bool"
        }
      ],
      "stateMutability": "nonpayable",
      "type": "function"
    },
    {
      "inputs": [
        {
          "internalType": "address",
          "name": "to",
          "type": "address"
        },
        {
          "internalType": "uint256",
          "name": "amount",
          "type": "uint256"
        }
      ],
      "name": "mint",
      "outputs": [],
      "stateMutability": "nonpayable",
      "type": "function"
    },
    {
      "inputs": [],
      "name": "name",
      "outputs": [
        {
          "internalType": "string",
          "name": "",
          "type": "string"
        }
      ],
      "stateMutability": "view",
      "type": "function"
    },
    {
      "inputs": [],
      "name": "owner",
      "outputs": [
        {
          "internalType": "address",
          "name": "",
          "type": "address"
        }
      ],
      "stateMutability": "view",
      "type": "function"
    },
    {
      "inputs": [],
      "name": "paused",
      "outputs": [
        {
          "internalType": "bool",
          "name": "",
          "type": "bool"
        }
      ],
      "stateMutability": "view",
      "type": "function"
    },
    {
      "inputs": [
        {
          "internalType": "bytes32",
          "name": "role",
          "type": "bytes32"
        },
        {
          "internalType": "address",
          "name": "account",
          "type": "address"
        }
      ],
      "name": "renounceRole",
      "outputs": [],
      "stateMutability": "nonpayable",
      "type": "function"
    },
    {
      "inputs": [
        {
          "internalType": "bytes32",
          "name": "role",
          "type": "bytes32"
        },
        {
          "internalType": "address",
          "name": "account",
          "type": "address"
        }
      ],
      "name": "revokeRole",
      "outputs": [],
      "stateMutability": "nonpayable",
      "type": "function"
    },
    {
      "inputs": [
        {
          "internalType": "bytes4",
          "name": "interfaceId",
          "type": "bytes4"
        }
      ],
      "name": "supportsInterface",
      "outputs": [
        {
          "internalType": "bool",
          "name": "",
          "type": "bool"
        }
      ],
      "stateMutability": "view",
      "type": "function"
    },
    {
      "inputs": [],
      "name": "symbol",
      "outputs": [
        {
          "internalType": "string",
          "name": "",
          "type": "string"
        }
      ],
      "stateMutability": "view",
      "type": "function"
    },
    {
      "inputs": [],
      "name": "totalSupply",
      "outputs": [
        {
          "internalType": "uint256",
          "name": "",
          "type": "uint256"
        }
      ],
      "stateMutability": "view",
      "type": "function"
    },
    {
      "inputs": [
        {
          "internalType": "address",
          "name": "recipient",
          "type": "address"
        },
        {
          "internalType": "uint256",
          "name": "amount",
          "type": "uint256"
        }
      ],
      "name": "transfer",
      "outputs": [
        {
          "internalType": "bool",
          "name": "",
          "type": "bool"
        }
      ],
      "stateMutability": "nonpayable",
      "type": "function"
    },
    {
      "inputs": [
        {
          "internalType": "address",
          "name": "from",
          "type": "address"
        },
        {
          "internalType": "address",
          "name": "to",
          "type": "address"
        },
        {
          "internalType": "uint256",
          "name": "amount",
          "type": "uint256"
        }
      ],
      "name": "transferFrom",
      "outputs": [
        {
          "internalType": "bool",
          "name": "",
          "type": "bool"
        }
      ],
      "stateMutability": "nonpayable",
      "type": "function"
    }
  ],
  "bytecode": "0x60806040523480156200001157600080fd5b50604080518082018252600781526626acaa27a5a2a760c91b602080830191825283518085019094526002845261135560f21b9084015281519192916200005b91600391620002e8565b50805162000071906004906020840190620002e8565b50506006805460ff19169055506200009333683635c9adc5dea000006200013a565b60068054610100600160a81b03191633610100810291909117909155620000dc907f9f2df0fed2c77648de5860a4cc508cd0818c85b8b8a1ab4ceeef8d981c8956a6906200021c565b620001087f3c11d16cbaffd01df69ce1c404f6340ee057498f5f00246190ea54220576a848336200021c565b620001347f65d7a28e3265b37a6474929f336521b332c1681b933f6cb9f3376673440d862a336200021c565b62000430565b6001600160a01b0382166200016c5760405162461bcd60e51b815260040162000163906200038e565b60405180910390fd5b6200017a6000838362000228565b80600260008282546200018e9190620003ce565b90915550506001600160a01b03821660009081526020819052604081208054839290620001bd908490620003ce565b90915550506040516001600160a01b038316906000907fddf252ad1be2c89b69c2b068fc378daa952ba7f163c4a11628f55a4df523b3ef9062000202908590620003c5565b60405180910390a3620002186000838362000228565b5050565b6200021882826200022d565b505050565b620002398282620002b9565b620002185760008281526005602090815260408083206001600160a01b03851684529091529020805460ff1916600117905562000275620002e4565b6001600160a01b0316816001600160a01b0316837f2f8788117e7eff1d82e926ec794901d17c78024a50270940304540a733656f0d60405160405180910390a45050565b60009182526005602090815260408084206001600160a01b0393909316845291905290205460ff1690565b3390565b828054620002f690620003f3565b90600052602060002090601f0160209004810192826200031a576000855562000365565b82601f106200033557805160ff191683800117855562000365565b8280016001018555821562000365579182015b828111156200036557825182559160200191906001019062000348565b506200037392915062000377565b5090565b5b8082111562000373576000815560010162000378565b6020808252601f908201527f45524332303a206d696e7420746f20746865207a65726f206164647265737300604082015260600190565b90815260200190565b60008219821115620003ee57634e487b7160e01b81526011600452602481fd5b500190565b6002810460018216806200040857607f821691505b602082108114156200042a57634e487b7160e01b600052602260045260246000fd5b50919050565b61150c80620004406000396000f3fe608060405234801561001057600080fd5b506004361061018e5760003560e01c806342966c68116100de578063a217fddf11610097578063d539139311610071578063d53913931461031e578063d547741f14610326578063dd62ed3e14610339578063e63ab1e91461034c5761018e565b8063a217fddf146102f0578063a457c2d7146102f8578063a9059cbb1461030b5761018e565b806342966c68146102925780635c975abb146102a557806370a08231146102ad5780638da5cb5b146102c057806391d14854146102d557806395d89b41146102e85761018e565b8063248a9ca31161014b578063313ce56711610125578063313ce5671461024457806336568abe14610259578063395093511461026c57806340c10f191461027f5761018e565b8063248a9ca314610214578063282c51f3146102275780632f2ff15d1461022f5761018e565b806301ffc9a71461019357806306fdde03146101bc578063095ea7b3146101d157806316f5f71b146101e457806318160ddd146101f957806323b872dd14610201575b600080fd5b6101a66101a1366004610fb3565b610354565b6040516101b39190611064565b60405180910390f35b6101c4610381565b6040516101b39190611078565b6101a66101df366004610f50565b610413565b6101ec610435565b6040516101b3919061106f565b6101ec610459565b6101a661020f366004610f15565b61045f565b6101ec610222366004610f79565b61048d565b6101ec6104a2565b61024261023d366004610f91565b6104c6565b005b61024c6104ef565b6040516101b391906113e6565b610242610267366004610f91565b6104f4565b6101a661027a366004610f50565b610543565b61024261028d366004610f50565b61058f565b6102426102a0366004610f79565b6105c8565b6101a66105d5565b6101ec6102bb366004610ec9565b6105de565b6102c86105f9565b6040516101b39190611050565b6101a66102e3366004610f91565b61060d565b6101c4610638565b6101ec610647565b6101a6610306366004610f50565b61064c565b6101a6610319366004610f50565b6106ad565b6101ec6106e7565b610242610334366004610f91565b61070b565b6101ec610347366004610ee3565b61072a565b6101ec610755565b60006001600160e01b03198216637965db0b60e01b1480610379575061037982610779565b90505b919050565b60606003805461039090611485565b80601f01602080910402602001604051908101604052809291908181526020018280546103bc90611485565b80156104095780601f106103de57610100808354040283529160200191610409565b820191906000526020600020905b8154815290600101906020018083116103ec57829003601f168201915b5050505050905090565b60008061041e610792565b905061042b818585610796565b5060019392505050565b7f97c877e40edb41710f0baf588c878ee15a04499b06ae8c98cf488875d91a721381565b60025490565b60008061046a610792565b905061047785828561084a565b610482858585610894565b506001949350505050565b60009081526005602052604090206001015490565b7f3c11d16cbaffd01df69ce1c404f6340ee057498f5f00246190ea54220576a84881565b6104cf8261048d565b6104e0816104db610792565b6109b8565b6104ea8383610a1c565b505050565b601290565b6104fc610792565b6001600160a01b0316816001600160a01b0316146105355760405162461bcd60e51b815260040161052c90611360565b60405180910390fd5b61053f8282610aa3565b5050565b60008061054e610792565b6001600160a01b0380821660009081526001602090815260408083209389168352929052205490915061042b908290869061058a9087906113f4565b610796565b60065461010090046001600160a01b031633146105be5760405162461bcd60e51b815260040161052c90611224565b61053f8282610b28565b6105d23382610bf0565b50565b60065460ff1690565b6001600160a01b031660009081526020819052604090205490565b60065461010090046001600160a01b031681565b60009182526005602090815260408084206001600160a01b0393909316845291905290205460ff1690565b60606004805461039090611485565b600081565b600080610657610792565b6001600160a01b03808216600090815260016020908152604080832093891683529290522054909150838110156106a05760405162461bcd60e51b815260040161052c9061131b565b6104828286868403610796565b60065460009061010090046001600160a01b031633146106cc57600080fd5b6106d46105d5565b6106dd57600080fd5b61042b8383610ce1565b7f9f2df0fed2c77648de5860a4cc508cd0818c85b8b8a1ab4ceeef8d981c8956a681565b6107148261048d565b610720816104db610792565b6104ea8383610aa3565b6001600160a01b03918216600090815260016020908152604080832093909416825291909152205490565b7f65d7a28e3265b37a6474929f336521b332c1681b933f6cb9f3376673440d862a81565b6001600160e01b031981166301ffc9a760e01b14919050565b3390565b6001600160a01b0383166107bc5760405162461bcd60e51b815260040161052c906112d7565b6001600160a01b0382166107e25760405162461bcd60e51b815260040161052c90611165565b6001600160a01b0380841660008181526001602090815260408083209487168084529490915290819020849055517f8c5be1e5ebec7d5bd14f71427d1e84f3dd0314c0f7b2291e5b200ac8c7c3b9259061083d90859061106f565b60405180910390a3505050565b6000610856848461072a565b9050600019811461088e57818110156108815760405162461bcd60e51b815260040161052c906111a7565b61088e8484848403610796565b50505050565b6001600160a01b0383166108ba5760405162461bcd60e51b815260040161052c90611292565b6001600160a01b0382166108e05760405162461bcd60e51b815260040161052c906110e0565b6108eb8383836104ea565b6001600160a01b038316600090815260208190526040902054818110156109245760405162461bcd60e51b815260040161052c906111de565b6001600160a01b0380851660009081526020819052604080822085850390559185168152908120805484929061095b9084906113f4565b92505081905550826001600160a01b0316846001600160a01b03167fddf252ad1be2c89b69c2b068fc378daa952ba7f163c4a11628f55a4df523b3ef846040516109a5919061106f565b60405180910390a361088e8484846104ea565b6109c2828261060d565b61053f576109da816001600160a01b03166014610cf9565b6109e5836020610cf9565b6040516020016109f6929190610fdb565b60408051601f198184030181529082905262461bcd60e51b825261052c91600401611078565b610a26828261060d565b61053f5760008281526005602090815260408083206001600160a01b03851684529091529020805460ff19166001179055610a5f610792565b6001600160a01b0316816001600160a01b0316837f2f8788117e7eff1d82e926ec794901d17c78024a50270940304540a733656f0d60405160405180910390a45050565b610aad828261060d565b1561053f5760008281526005602090815260408083206001600160a01b03851684529091529020805460ff19169055610ae4610792565b6001600160a01b0316816001600160a01b0316837ff6391f5c32d9c69d2a47ea670b442974b53935d1edc7fd64eb21e047a839171b60405160405180910390a45050565b6001600160a01b038216610b4e5760405162461bcd60e51b815260040161052c906113af565b610b5a600083836104ea565b8060026000828254610b6c91906113f4565b90915550506001600160a01b03821660009081526020819052604081208054839290610b999084906113f4565b90915550506040516001600160a01b038316906000907fddf252ad1be2c89b69c2b068fc378daa952ba7f163c4a11628f55a4df523b3ef90610bdc90859061106f565b60405180910390a361053f600083836104ea565b6001600160a01b038216610c165760405162461bcd60e51b815260040161052c90611251565b610c22826000836104ea565b6001600160a01b03821660009081526020819052604090205481811015610c5b5760405162461bcd60e51b815260040161052c90611123565b6001600160a01b0383166000908152602081905260408120838303905560028054849290610c8a90849061142b565b90915550506040516000906001600160a01b038516907fddf252ad1be2c89b69c2b068fc378daa952ba7f163c4a11628f55a4df523b3ef90610ccd90869061106f565b60405180910390a36104ea836000846104ea565b600080610cec610792565b905061042b818585610894565b60606000610d0883600261140c565b610d139060026113f4565b67ffffffffffffffff811115610d3957634e487b7160e01b600052604160045260246000fd5b6040519080825280601f01601f191660200182016040528015610d63576020820181803683370190505b509050600360fc1b81600081518110610d8c57634e487b7160e01b600052603260045260246000fd5b60200101906001600160f81b031916908160001a905350600f60fb1b81600181518110610dc957634e487b7160e01b600052603260045260246000fd5b60200101906001600160f81b031916908160001a9053506000610ded84600261140c565b610df89060016113f4565b90505b6001811115610e8c576f181899199a1a9b1b9c1cb0b131b232b360811b85600f1660108110610e3a57634e487b7160e01b600052603260045260246000fd5b1a60f81b828281518110610e5e57634e487b7160e01b600052603260045260246000fd5b60200101906001600160f81b031916908160001a90535060049490941c93610e858161146e565b9050610dfb565b508315610eab5760405162461bcd60e51b815260040161052c906110ab565b9392505050565b80356001600160a01b038116811461037c57600080fd5b600060208284031215610eda578081fd5b610eab82610eb2565b60008060408385031215610ef5578081fd5b610efe83610eb2565b9150610f0c60208401610eb2565b90509250929050565b600080600060608486031215610f29578081fd5b610f3284610eb2565b9250610f4060208501610eb2565b9150604084013590509250925092565b60008060408385031215610f62578182fd5b610f6b83610eb2565b946020939093013593505050565b600060208284031215610f8a578081fd5b5035919050565b60008060408385031215610fa3578182fd5b82359150610f0c60208401610eb2565b600060208284031215610fc4578081fd5b81356001600160e01b031981168114610eab578182fd5b60007f416363657373436f6e74726f6c3a206163636f756e742000000000000000000082528351611013816017850160208801611442565b7001034b99036b4b9b9b4b733903937b6329607d1b6017918401918201528351611044816028840160208801611442565b01602801949350505050565b6001600160a01b0391909116815260200190565b901515815260200190565b90815260200190565b6000602082528251806020840152611097816040850160208701611442565b601f01601f19169190910160400192915050565b6020808252818101527f537472696e67733a20686578206c656e67746820696e73756666696369656e74604082015260600190565b60208082526023908201527f45524332303a207472616e7366657220746f20746865207a65726f206164647260408201526265737360e81b606082015260800190565b60208082526022908201527f45524332303a206275726e20616d6f756e7420657863656564732062616c616e604082015261636560f01b606082015260800190565b60208082526022908201527f45524332303a20617070726f766520746f20746865207a65726f206164647265604082015261737360f01b606082015260800190565b6020808252601d908201527f45524332303a20696e73756666696369656e7420616c6c6f77616e6365000000604082015260600190565b60208082526026908201527f45524332303a207472616e7366657220616d6f756e7420657863656564732062604082015265616c616e636560d01b606082015260800190565b60208082526013908201527213db9b1e4818591b5a5b8818d85b881b5a5b9d606a1b604082015260600190565b60208082526021908201527f45524332303a206275726e2066726f6d20746865207a65726f206164647265736040820152607360f81b606082015260800190565b60208082526025908201527f45524332303a207472616e736665722066726f6d20746865207a65726f206164604082015264647265737360d81b606082015260800190565b60208082526024908201527f45524332303a20617070726f76652066726f6d20746865207a65726f206164646040820152637265737360e01b606082015260800190565b60208082526025908201527f45524332303a2064656372656173656420616c6c6f77616e63652062656c6f77604082015264207a65726f60d81b606082015260800190565b6020808252602f908201527f416363657373436f6e74726f6c3a2063616e206f6e6c792072656e6f756e636560408201526e103937b632b9903337b91039b2b63360891b606082015260800190565b6020808252601f908201527f45524332303a206d696e7420746f20746865207a65726f206164647265737300604082015260600190565b60ff91909116815260200190565b60008219821115611407576114076114c0565b500190565b6000816000190483118215151615611426576114266114c0565b500290565b60008282101561143d5761143d6114c0565b500390565b60005b8381101561145d578181015183820152602001611445565b8381111561088e5750506000910152565b60008161147d5761147d6114c0565b506000190190565b60028104600182168061149957607f821691505b602082108114156114ba57634e487b7160e01b600052602260045260246000fd5b50919050565b634e487b7160e01b600052601160045260246000fdfea264697066735822122075929ee8df49a6a271348edd086b7b07409aca9e9e6c1c741952f66e49bf34a264736f6c63430008000033",
  "linkReferences": {},
  "deployedLinkReferences": {}
}